:10100000404A0020A16800005DF500008D680000E6
:101010008D6800008D6800008D68000000000000F1
:10102000000000000000000000000000096A00004D
:101030008D68000000000000A96900008D680000B4
:10104000E16B0000E16B0000E16B0000E16B000070
:10105000E16B0000E16B0000E16B0000E16B000060
:10106000E16B0000E16B0000E16B0000E16B000050
:10107000E16B0000E16B0000E16B0000E16B000040
:10108000E16B0000E16B0000E16B0000E16B000030
:10109000E16B0000E16B0000E16B0000E16B000020
:1010A000E16B0000E16B0000E16B0000E16B000010
:1010B000E16B0000E16B0000E16B0000E16B000000
:1010C000E16B0000E16B0000E16B0000E16B0000F0
:1010D000E16B0000E16B0000E16B0000E16B0000E0
:1010E000E16B0000E16B0000E16B0000E16B0000D0
:1010F000E16B0000E16B0000E16B0000E16B0000C0
:1011000053B94AB9002908BF00281CBF4FF0FF316E
:101110004FF0FF3000F00CB8ADF1080C6DE904CED3
:1011200000F010F8DDF804E0DDE9022304B07047B8
:10113000704700BF034613F8012B002AFBD1181A91
:10114000013870472DE9F04786468C460846089ED0
:10115000154674461946002B40F0C2808542B2FA0B
:1011600082F245D94AB1C2F1200300FA02FC2EFAFC
:1011700003F3954043EA0C0C94404FEA154EA8B295
:10118000BCFBFEF8230C0EFB18CC08FB00F943EA6D
:101190000C43994528D9EB1808F1FF3704D299453B
:1011A00002D9A8F102072B44A3EB0903A4B2B3FBB5
:1011B000FEFC0EFB1C330CFB00F044EA0344A0428F
:1011C00014D92C190CF1FF3304D2A04202D9ACF18E
:1011D00002032C44241A43EA07401EB1D4400023E2
:1011E00034607360BDE8F0874746DDE76346F1E7AA
:1011F00092BB431B01214FEA154EAFB2B3FBFEFC7D
:10120000200C0EFB1C330CFB07F840EA0343984507
:1012100062D9EB180CF1FF3004D2984502D9ACF139
:1012200002002B44A3EB0803A4B2B3FBFEFC0EFBAD
:101230001C330CFB07F744EA0344A7424ED92C1990
:101240000CF1FF3304D2A74202D9ACF102032C44C3
:10125000E41B43EA0040C0E7C2F1200320FA03F197
:10126000954090402EFA03F303434FEA154EAFB278
:10127000B1FBFEFC0EFB1C10190C0CFB07F841EA3D
:101280000041884504FA02F422D969180CF1FF30B4
:1012900004D2884502D9ACF102002944A1EB08012F
:1012A0009BB2B1FBFEFC0EFB1C110CFB07F743EAE3
:1012B00001439F420ED9EB180CF1FF3104D29F423B
:1012C00002D9ACF102012B44DB1B41EA004192E759
:1012D0006046E3E76146F7E76046A3E76346B7E7A2
:1012E000834206D916B9002108467BE7C6E900E02B
:1012F000F9E7B3FA83F78FB9834201D3724508D86F
:10130000BEEB020460EB030301209C461EB90021E2
:1013100068E73846FAE7C6E9004CF8E7C7F1200C61
:10132000BB4022FA0CF41C432EFA0CF120FA0CF309
:10133000B84001434FEA14490EFA07F5B3FBF9F838
:101340001FFA84FE09FB18300B0C08FB0EFA43EA67
:1013500000439A4502FA07F240D9E31808F1FF303A
:1013600004D29A4502D9A8F102002344A3EB0A0350
:1013700089B2B3FBF9F809FB183308FB0EFE41EA0A
:1013800003418E452CD9611808F1FF3304D28E45F4
:1013900002D9A8F10203214443EA0040A0FB0298CD
:1013A000A1EB0E014145CE46434602D306D14D4541
:1013B00004D2B9EB020E68EB04030138002EA6D06C
:1013C000B5EB0E0261EB030101FA0CFC22FA07F304
:1013D0004CEA0303F940C6E9003198E74046C5E707
:1013E0004346D9E710B5104C20460EF0D4FB40B967
:1013F0000E4A0F4801210DF0E0FE6FF00404204674
:1014000010BDA3681B6A0BB120469847002000F06E
:10141000F7FD04460028F2D0064A0346012104489D
:101420000DF0D4FEEBE700BF4800010028050100E5
:101430009C0201003E0501002DE9F7430024DFF87E
:10144000B880254626462746002112200BF002FFD1
:10145000D8F808301B686BB10DF10701404698477A
:10146000034650B1421CEFD0244A254801210DF01B
:10147000ADFEE9E76FF05703F6E787B99DF807601F
:1014800036020EF090FC4FF47A73A0FB030503FBC9
:101490000155C40B44EA45440127ED0BD4E70EF097
:1014A00082FC4FF47A79A0FB090309FB0131C20BDE
:1014B00042EA4142121B4FEAD13161EB0501062A93
:1014C00071F100019DF807300BDB1E020EF06BFC82
:1014D000A0FB090509FB0155C40B44EA4544ED0B8B
:1014E000B2E71E43074A0648334603210DF06EFE5D
:1014F000304603B0BDE8F0834800010062050100FA
:101500009C02010079050100F0B585B285B09A4AC8
:101510009A482B4603210DF059FEAB0B022BC5F365
:101520000526ECB200F07481032B00F05C81012BE6
:1015300000F067810027ADF802700DF0F7F9092E71
:1015400000F2DF80DFE816F00A00170034006600C2
:1015500071009C00C400D800E5000C01032C00F2CF
:10156000D080874B1F70874B1F7000F0D9FD00287B
:1015700040F0C78007E00F2C00F2C380804B2401AD
:1015800024F03F041C70BDF802407F4A7B4823468C
:1015900003210DF01BFE7D4DAE68210A73682846BD
:1015A000984728467368E1B29847002005B0F0BD1F
:1015B000043C0F2C00F2A580DFE804F008080808BE
:1015C000111111111B1B1B1B24242424002000F0CB
:1015D000BDFD002840F095806A4B1870D3E70120CC
:1015E00000F0B4FD002840F08C80664B01221A7098
:1015F000C9E7022000F0AAFD002840F08280614B7C
:101600000222F4E7032000F0A1FD002879D15D4B10
:101610000322ECE7032C03D800200DF089F9A6E79C
:10162000043C032C6DD80120F7E7032C69D801A8EE
:1016300000F0C0FD9DF804309DF805205B0043EAF2
:1016400082039DF8062043EAC2039DF8072043EA7F
:1016500002139DF8082043EA42139DF8092043EA4B
:1016600082139DF80A2043EAC2139DF80B2043EA37
:1016700002239DF80C2043EA4223ADF8023082E7B2
:10168000102C3ED8DFE804F00909090914141414D9
:10169000181818181C1C1C1C20000DF10201002039
:1016A0000DF04CF9BDF802305B00ADF802305EE79A
:1016B0000DF102010120F3E70DF102010220EFE735
:1016C0000DF102010320EBE70DF102010420E7E731
:1016D000A30904F01F0124B9214620460DF043F967
:1016E00045E7012B04D0022B04D053B90120F5E7C4
:1016F0000220F3E70320F1E7A409012C03D0022C18
:1017000005D0012441E700200DF033F92FE7012037
:10171000FAE704F07F00431E4A2B4FEAD412F0D8B8
:101720001B4B52B9012203F8012B01329042FAD22D
:10173000024617490DF020F919E7194601F8012B67
:1017400001329042FAD203440246013A12F0FF02FB
:1017500003D14200013AD2B2EBE703F8012BF4E7E0
:1017600069B27E2916D07F2939D07F34E4B2932C18
:10177000C7D80022022010E0910501009C02010060
:10178000672B0020662B0020AB05010048000100FC
:10179000D02A002000221146104600F015FDC0F3AB
:1017A00007238DF80400C0F307408DF805308DF84D
:1017B00006009DF804309DF806205B00ADF802306D
:1017C0001AB143F48063ADF802309DF80520BDF8EE
:1017D0000230002A3FF4D7AE43F400734DE70022F5
:1017E00011460120D9E7002E8BD1032C89D801A8FE
:1017F00000F0DCFE002884D1BDF8044044F400442D
:10180000C3E6304600F046FD041E18BF0124BCE6C6
:1018100004F00302022AC5F3850104D0032A06D08E
:10182000531E5A425A41074B1B78194305E0064B99
:101830001B78012B4FF00402F5D8304600F048FD2C
:10184000E2E700BF672B0020662B00204FF080539B
:10185000D3F83021082A06D1D3F83431052B04D827
:10186000034AD05C7047002070470120704700BFDA
:10187000D5060100084B0022C3F81C21D3F81C2117
:1018800001225A61D3F81C21002AFBD0D3F8480565
:1018900000F07F00704700BF00100040124AD8B12E
:1018A000D2F83C3723F0004323F0FF0343F000431A
:1018B00043F07D03C2F83C37D2F87C3723F0004375
:1018C00023F0700343F0004343F06003C2F87C3719
:1018D000064B83F841027047054BC2F83C37D2F8FB
:1018E0007C3723F00043F1E7001000402006002081
:1018F0003430004010F1280F08B540D01E30C3B27C
:10190000262B31D826282FD8DFE800F03B2E2E2EAC
:101910002E2E2E2E2E2E142E2E2E162E2E2E182E2F
:101920002E2E1A2E2E2E1C2E2E2E1E2E2022242639
:10193000282A2C00EC2008BDF020FCE7F420FAE770
:10194000F820F8E7FC20F6E70020F4E70220F2E7B1
:101950000320F0E70420EEE70520ECE70620EAE7A5
:101960000720E8E70820E6E70749084840F20A426E
:101970000DF09EF9044840F20A410DF090F9D8208C
:10198000D9E7E220D7E700BFCD050100E805010057
:1019900070B5104D104C95F8A00308F0BDFA002367
:1019A000C4F80032C4F81031D4F810310123236197
:1019B000D4F81031002BFBD00026C4F810610120B0
:1019C000D4F8103105F040F80B23C4F808336E80CA
:1019D00070BD00BF200600200010004008B5014681
:1019E000FFF734FF68B1074AD2F8403723F00043CD
:1019F00029B123F47F4343F0004343F44443C2F846
:101A0000403708BD00100040064C0748214608B585
:101A100040F259420DF04CF940F2594120460DF088
:101A20003EF900BFCD050100E805010010B50446F0
:101A3000FFF70CFF40B144B1094BD3F888371BB90D
:101A4000084B012283F8402210BD2046FFF726FFF5
:101A5000054809F0BDFA034B83F84042F4E700BFA4
:101A60000010004020060020500800201FB52F4C19
:101A700094F8421294F9430200F0A6FD30B92C48C4
:101A80000DF000F96FF0150004B010BDFFF780FFF6
:101A900094F94302FFF72EFF264BC3F80C0594F888
:101AA0004222C3F81025D3F8501641F00101C3F8C3
:101AB0005016D4F81C12080E0902C3F82405C3F806
:101AC0001C150121C3F830151B480021C3F82C1543
:101AD000033AC3F83C0540F20310C3F83405012A69
:101AE00040F25B60C3F8380588BF0323CDF80610C9
:101AF00084BF8DF807300223CDF8021088BF8DF81F
:101B000004309DF807309DF8042094F818125B0704
:101B100043EA825343EA0163064A43F48473C2F8FA
:101B20001435064BC2F818350020ADE7200600201A
:101B3000000601000010004055555500FF0003004D
:101B40002DE9F041704BD3F804217AB16F4800229F
:101B5000C3F80421D3F804310378042B06D190F89C
:101B600040321BB100F50C7009F032FA664AD2F827
:101B70000C31002B7CD00026C2F80C61D2F80C315D
:101B8000634B624C0221C3F880112378042B6FD180
:101B9000D4F80852231DE91A4B424B414FF481718E
:101BA00001FB034304330127C4F80832C2F80435AB
:101BB000576094F8403263B30A2104F50C7009F0C1
:101BC00069FA3B460246314604F50C7009F086FA84
:101BD0004FF4FA7104F50C7009F03CFA3B460246EA
:101BE000394604F50C7009F079FAD4F83032C3F8AC
:101BF0004061D3F84031D4F8303204F50C70C3F8AA
:101C00004461D3F8443109F00FFA04F50C7009F07F
:101C1000C7F93D4BD3F80034DB0723D594F84432A1
:101C200094F842022E7895F80180002BA0F103036E
:101C30000CBF02270327012B06F00F060CD8022E3B
:101C400010D80CF09CFEE819072E0BD8DFE806F040
:101C500045385A4F525456580CF091FE0028F2D095
:101C6000042EF0D94FF48172002128460EF0E5F8D9
:101C7000254BD3F80021C2B1244C0022C3F8002127
:101C8000D3F800312378042B0FD194F8403263B19C
:101C900004F50C7009F0C8F904F50C7009F0AEF900
:101CA00018B904F50C7009F07BF9174BD3F81C2117
:101CB00022B10022C3F81C21D3F81C31BDE8F08109
:101CC0000F23691C0022D0B280450CD911F8010FF6
:101CD000984202F10102F6D0C4E70E4942460EF0E6
:101CE000B4F80028BED1638801336380BAE70A499B
:101CF0004246F4E7FF23E4E70023E2E7F023E0E7CE
:101D0000AA23DEE75523DCE7001000402006002070
:101D100000E100E0E3070100E406010070B5284D92
:101D200095F81432272B064601D9FFF76DFE254C96
:101D30005B000233C4F80835D5F80832C4F804351E
:101D40000023C4F80031D4F800310323C4F8003272
:101D50001D4B0222C3F88021012004F067FE8B2373
:101D6000C4F804336EB195F8403213B10120FFF787
:101D700095FD0023C4F80C31D4F80C3101236360C5
:101D800070BD95F94302FFF7B5FDC4F80C0595F851
:101D90004032002BF4D005F50C7009F019F905F567
:101DA0000C7009F041F9D5F83032C3F84061D3F82E
:101DB0004031D5F83032C3F84461D3F84431DFE71D
:101DC000200600200010004000E100E010B52D4B7F
:101DD000BFF35B8F53E8002F22F4803143E80010FB
:101DE0000028F7D1BFF35B8F12F4803F1C4605D06B
:101DF000A3F56973D3F820020DF054FDBFF35B8F98
:101E000054E8003F23F0040244E800210029F7D100
:101E1000BFF35B8F590705D51B480DF043FD1B48E9
:101E20000DF040FDBFF35B8F54E8003F23F010023C
:101E300044E800210029F7D1BFF35B8FDA0605D50E
:101E400011480DF02FFD12480DF02CFDBFF35B8FF4
:101E500054E8003F23F4807244E800210029F7D1C0
:101E6000BFF35B8FDB050BD50A4BD3F8200200F5DF
:101E7000A0700DF017FDBDE8104004480DF012BD34
:101E800010BD00BFC4090020004101400010004007
:101E9000041000402006002070B5144C204609F0C4
:101EA00097F894F8800108F037F8114BA4F50875FD
:101EB0000026C3F80061D3F80031FFF787FFD5F89B
:101EC0002032C3F80062D5F820324FF0FF32C3F859
:101ED0000823204609F0A8F804F1100009F078F86A
:101EE000FFF756FD01232B7070BD00BF4008002096
:101EF00000400140B0F5A07F38B503D0B0F5A27F17
:101F000047D038BD3A4DFFF7B5FC95F841328BB359
:101F10005F2802D90020FFF7C1FC364B3648012468
:101F20001C649C6309F054F80A21334809F0B2F8A4
:101F3000234602460021304809F0D0F82E4809F027
:101F400073F8D5F830322C480022C3F84021D3F87A
:101F5000403109F025F8D5F8302242F30732002A43
:101F6000CFDB530902F01F0294406033234A42F84A
:101F70002340C6E71F4BD3F874354FF6F072134277
:101F800003D15E28C9D80120C5E7B3F5003FF8D2D8
:101F9000F9E7174DFFF76EFC95F841321BB35E2849
:101FA00002D90020FFF77AFC124B134801241C646D
:101FB0009C63D5F830220023C2F84431D2F8442182
:101FC00021461A4609F08AF8D5F8303243F3073330
:101FD000002B96DB5A0903F01F039C406032074B2D
:101FE00043F822408DE75E28DED80120DAE700BF03
:101FF00020060020001000405008002000E100E012
:102000007FB50646002007F095F938B937480CF03F
:1020100039FE6FF00504204604B070BD0023019323
:10202000039369460123029301F032FC041E04DA93
:102030002F4821460CF026FEEDE7029B9B07FCD1C2
:10204000039C14B12B482146F4E72B4B2B4A2C4818
:1020500000936946CDE9014408F05EFF054630B1C2
:10206000284829460CF00EFE6FF00A04D3E702461A
:102070000321082004F00AFD234B244A244800933E
:102080006946CDE9015508F047FF05460028E7D12C
:10209000224602211A2004F0F9FC0A211C4808F00B
:1020A000F9FF214602460123194809F017F8214695
:1020B0002046184A07F0C2FE041E02DA16482146DE
:1020C000B8E72A460221012004F0E0FC012004F0D8
:1020D000ADFCFFF7CBFC044600289CD10F4B01223E
:1020E0001A70C3F80C02C3F89C6394E73006010031
:1020F000510601006B06010040420F002BE9000071
:10210000400800208B06010048E80100F51E000091
:1021100050080020C0090020AC0601002006002065
:1021200010B5094B002403222046C3F80C4283F863
:10213000184283F84222FFF751FC2046FFF776FC55
:10214000BDE81040FFF792BC2006002010B5032820
:102150002BD8DFE800F002131B27154B03220024C5
:1021600083F8422283F818420020FFF737FC002052
:10217000FFF75CFCBDE81040FFF778BC0C4B042275
:1021800083F84222012283F81822EDE7084B05224A
:1021900083F842220120032283F81822FFF71EFC55
:1021A0000120E5E7024B0622F2E76FF0150010BDB3
:1021B00020060020034A116801605168127A4160CC
:1021C00002727047DB060100272AF7B507460D4665
:1021D00001D9FFF719FC0CF0D8FB46B20CF0D8FB84
:1021E000012F44B244D0022F0DD077B100231A46FC
:1021F0001C46DBB2002063F3070062F30F2064F398
:10220000174003B0F0BDB54206DC1F4B83F84362B4
:10221000334600240122ECE7A54229DA0CF0BAFB90
:10222000074600F0E3F901239F4214D9C1568D42BD
:102230001CDA18444A1B10F9013C002AA3EB0505DF
:10224000B8BF5242002DB8BF6D4252B2AA42B8BFC9
:102250000B467F2B0DD10D490D4840F24F420CF03B
:1022600027FD0A4840F24F410CF019FD0133DBE72E
:102270002346054A9E4282F84332CAD0E21A5442AB
:1022800054410022B5E700BF20060020CD05010023
:10229000E8050100272838B5034613D80B4D002464
:1022A000281D4FF401722146C5F81432C5F8080202
:1022B0006C800DF0C2FD0120FFF730FD04232B7070
:1022C000204638BD6FF01500FBE700BF2006002058
:1022D000F7B5AD4C03462078012840F05181042A1F
:1022E00004F1040042D194F84222033A012A11D8A1
:1022F000C4E98201092284F81022002262806171FF
:10230000012940F2FA80022900F00A816FF01500DD
:1023100003B0F0BDC4E98201052284F81022272B06
:10232000C4F81432F2D80025658094F844526171E3
:10233000002D0CBF02250325092AE7D801A656F86F
:1023400022F000BF7B230000AF240000BF24000068
:10235000C92400000D230000D3240000DD24000068
:10236000E7240000F124000001230000092AC4E949
:10237000820184F81022D2D1BFE700230A468349A4
:10238000237128440DF04BFD94F8443253B1D4F836
:102390000822137843F020031370D4F8083294F81D
:1023A0009A239A700020FFF7B9FC94F84212D4F8EF
:1023B0000C3294F84422C81EC0B2032840F2C280F6
:1023C000DB00002A40F0DA8040F27121F9330A463E
:1023D000934201F27121FAD8002601236C4800963D
:1023E000314608F0A5FE6B4D94F8A0136A480DF035
:1023F00057FA94F8A01369480DF052FABFF35B8FB7
:1024000055E8003F43F0040345E80032002AF7D1C5
:10241000BFF35B8F94F8A013D4F820020DF040FABC
:10242000BFF35B8F55E8003F43F4803345E800324B
:10243000002AF7D1BFF35B8F94F8A00307F064FD87
:10244000EFF31187202383F31288BFF36F8F544B70
:10245000C3F80061D3F8002101221A6094F8A003A8
:1024600007F05AFDFFF7B2FCD4F8200294F8A0134D
:1024700000F5A0700DF014FA94F8A01347480DF081
:102480000FFABFF35B8F55E8003F43F4807345E8D4
:102490000032002AF7D1BFF35B8F94F8A00307F056
:1024A00033FD87F31188BFF36F8F022336E00123DA
:1024B0000A4623710F2128440DF0BFFC64E7022374
:1024C0000A4623715521F6E703230A46237135494D
:1024D00057E704230A462371FF21ECE705230A4648
:1024E00023710021E7E706230A462371F021E2E782
:1024F00007230A462371AA21DDE70020C4F814321D
:10250000FFF70CFC254BD3F8502642F00102C3F82C
:1025100050260122C3F800221A60032323700FE023
:1025200013F0300F18BF43F0C0035DB294F84212AD
:10253000284600F049F800283FF4E8AE84F84352FA
:102540000020E5E6184D052935F8100002D100EB12
:10255000831336E7062902D100EB031331E7042980
:1025600000EBC30301D15B082BE7002A3FF42CAF3B
:10257000083394F8982303EBC20325E70433F8E704
:102580006FF00F00C4E600BF20060020E307010043
:1025900040080020C4090020004101400010004014
:1025A00000400140E40601002005010008B530B1FB
:1025B000044B5B880380FFF76FFC002008BD6FF0C1
:1025C0001500FBE7200600200339032908D8064A36
:1025D000002312F9011B814204D001330F2BF8D1E3
:1025E0000020704701207047E20801000048704752
:1025F000E208010073B51D480CF044FB002002F016
:1026000089FE044648B110F1780F06D001461848FB
:102610000CF038FB204602B070BD16480DF0BBFA36
:1026200098B1144D0023AE680193C824B36C1BB15C
:1026300001AA042128469847019B33B940F26760FC
:1026400000210AF007FE013CF0D1FEF7CBFE044664
:1026500010B101460848DBE7FEF7EEFEFEF754FF37
:1026600004460028F8D001460448D1E7F1080100EB
:1026700013090100480001002D0901005309010060
:1026800038B551B302680B1F9B1AD90823F0070312
:1026900013445C88E00708D410491148AF220CF0BD
:1026A00007FBAF210D480CF0FAFA10460CF074F954
:1026B000084432F83050401B814206D00749084890
:1026C000B7220CF0F5FAB721ECE724F001045C80A6
:1026D000BDE8384010460CF01CBA38BD7109010045
:1026E000E8050100B2F5802F2DE9F0410AD3344905
:1026F000344840F213220CF0DBFA40F21321304848
:102700000CF0CDFA042A08D82D492E4840F21A229E
:102710000CF0CEFA40F21A21F1E7043ACD1D8E18E2
:1027200025F0070526F00706761B172E4FEAD60779
:1027300008D82349234840F223220CF0B9FA40F28A
:102740002321DCE7B7FA87F4C4F12002C4F12404A2
:10275000A4000734E408631C4FF00008BB42056086
:10276000AF60C5F80C8008D9154916484FF40E72B1
:102770000CF09EFA4FF40E71C1E74146920005F14C
:1027800010000DF05AFB630043F001036B8005EB72
:10279000C4023B1B5900A5F800805180AA1925F8F6
:1027A0003440A2F80280AB5305EBC70321465A8898
:1027B00042F001025A802846BDE8F0410CF0F1B821
:1027C00071090100E80501002DE9F04F91B084077F
:1027D000009302F004030293C2F3C20303F1010366
:1027E000DDF86880039205460E46059340F0E081CF
:1027F000041D30B1072909D86FF01B0011B0BDE8E6
:10280000F08F01F007063444C6F10806009B4FF034
:102810000009591E4FF0040A4FF0FF330193CDF821
:1028200010904F46CB4653460DB1009A2260059852
:10283000002800F3D7809548009A824203D3944839
:102840008242C0F0CF80039AA4EB050E92074FEAB4
:102850009E0040F1DE804FF0000CCCE07A285DD87D
:102860004B280ED8472859D829282DD8252852D0AA
:1028700054D820287AD02338D0F1000B4BEB000B32
:1028800074E04C382E2849D8DFE800F070484848FA
:1028900048484848484848484B48484848484848B5
:1028A0004859484B4B595959704B6D487048184B13
:1028B00018484883804B48484B48800000204FF020
:1028C000000B4FF0040A38E02A38C0B2012202FAA5
:1028D00000F010EA0E0F49D110F0625C2FD110EA1F
:1028E000020B43D06046013C5444B4FBFAF40AFBAB
:1028F00004F4002D60D0A3EB050CA444B4453FF6CE
:102900007BAF002867D1042B48D158F8043B2360E3
:10291000043404232AE0019A013A01924FF0000B9B
:1029200024E011F8010C6C2835D111F8023C00208C
:102930006C2B8346C5D14FF0080A5346D3E708F104
:10294000070828F007080734F8E802AB24F007046A
:1029500035B106982044B0423FF64EAFC4E900AB13
:1029600008344FF0000B4FF0080A534611F8010FDE
:10297000002800F0A980BBF1000F7FF46FAF25287D
:10298000F4D1019B013301934FF0010B4FF0040A86
:10299000EBE7584693E700208346A4E7082B40F076
:1029A0008A8008F1070828F00708F8E80223C4E93C
:1029B000002308340823D9E768B9042B02D108F1B1
:1029C0000408A5E7082B76D108F1070828F00708C6
:1029D00008F10808EDE7059A013A059258F8042B2A
:1029E000009221E7039A900744D5A4EB050E4FEA25
:1029F0009E004FF0010CBEF5007F1BD325492648F1
:102A00004FF41F720CF054F94FF41F7121480CF071
:102A100046F90F2F10D8002D40D007F140020DEBE2
:102A2000020C019A0CF8200C0CF8102C04980130C0
:102A300004901EE00F2F08D91649174840F2812252
:102A40000CF036F940F28121E0E7D5B107F1400200
:102A50000DEB020EC0B2019A0EF8200C0EF8102CED
:102A6000BCF1000FE2D060F07F000EF8200C09F1FD
:102A700001090137C5F10802043406924FF6DA7EE7
:102A800074E7BCF1000F09D00136F2E754FF0000F3
:102A90006021010094090100E80501000298023656
:102AA0000028E6D10098CDE90631FEF743FBDDE9C9
:102AB00006310644DDE74049404840F2C6220CF0AA
:102AC000F7F840F2C621A1E7631BB3F5806F08D386
:102AD00039493A4840F2D2220CF0EAF840F2D221C9
:102AE00094E71DB9A6F10804E01887E6029A286069
:102AF0009B082B709DF81030C2B1EB7085F80290E6
:102B0000B9F1000F05D008A80022C5F1010C9742C9
:102B10000ED1C5F101030DF120084FF0000A019319
:102B20000DF1300B574512D1601B67E66B70E5E77E
:102B300010F8013B190608D50CEB040EB64503F05E
:102B40007F033FF659AE04F8013B0132DFE7B9F1EC
:102B5000000F03D098F90020002A17DB029BD3B1A5
:102B60001AF80B2004F8012B0022019B18191044BD
:102B7000B0423FF641AE98F8000004F8010B00990E
:102B8000039220460DF04BF9039A14440AF1010A0E
:102B900008F10108C6E798F8002055F822300093A4
:102BA000029B45F822300098FEF7C4FA421CDCE78D
:102BB0006FF00D0022E600BF94090100E805010056
:102BC0002DE9F04F97B000AF8946D7F880B0FA6290
:102BD0003B62044650B9A849A84840F299320CF02B
:102BE00067F840F29931A4480CF059F8CBF3C003D0
:102BF00090F802A07B6141B9457800780AEB80002B
:102C000020444D4517D8A0EB0409E378FB61BAF1E5
:102C1000000F02D01BF0010F16D1FB6953BBFB6AFA
:102C20001BB13A6A4946204698474D4628465C37CC
:102C3000BD46BDE8F08F461C3046FEF77BFA0130FA
:102C4000304409F10109DCE7237862687A62FA6AA4
:102C50009900B96104EB8301002A40F001814D46DF
:102C60000E4601EB0A094FF000084E454CD101EB2E
:102C70000A0610E01BF0020FD1D023789A00BA6147
:102C800062687A62FA6A04EB8301002A77D14D46C2
:102C900001EB0A0690461BF0050F0CBF022301232F
:102CA000FB62FB6906EB430A0BF00203BB6256456D
:102CB000BCD016F8021B16F8013C54F82390704B58
:102CC000994502D36F4B994536D37B69002B40D091
:102CD000786A0BF0B0FF00283BD0E9468AB06A461C
:102CE000694B53617B6AC2E906314FF40073138468
:102CF000664B42F8103F664800234FF4125101F032
:102D0000C1FA023DCD46D2E716F8013BF96254F80C
:102D10002300FEF70FFAD7F88430F96A01304BB17F
:102D2000D7F8883098453EBFD7F8843023F818008C
:102D300008F10108054498E77B6923B1786A0BF034
:102D40007AFF0028C9D11BF0010F05D1FB6AED1AEB
:102D5000ADE7BB6A002BAAD04846FEF7EBF9D7F8DF
:102D6000843053B1D7F8883098453FBFD7F88420D6
:102D7000431C22F8183008F10108054497E7BAF11E
:102D8000000F73D01BF0040673D0D046002607F165
:102D9000480052463B61B9620DF041F8B96A3B699F
:102DA00001EB0A02BA62FA69F9695200FA60BA6A7A
:102DB00002EB41023A610BF00202BA60BA6A396969
:102DC0008A4267D162787A621BF0020F32440CBFEC
:102DD0004FEA580100211BF0010FD2B240F0DF8012
:102DE0001BF0040F14BF404600207B616270A0708E
:102DF000E1703A6AB969FB6A20469847051EFFF6FA
:102E000015AF7B6923707B6A6370FB69E370414691
:102E10003A6AFB6A84F802A007F148009847B0F1CB
:102E20000008C0F2F080BB693A6AA9EB0A01C91A2E
:102E3000FB68C91AD7E90A0398470028C0F2E58061
:102E4000A84408EB00054FF0000B07F1380AB34522
:102E5000C0F0A78000213A6AFB6A08469847E5E679
:102E600056464FF0000807F1380092E75646D04624
:102E700096E7B04694E700BF94090100E805010019
:102E800054FF000060210100C2090100040000019C
:102E90008C020100BA6A12F8021BBA6212F8015CD5
:102EA0005B4A54F82500904202D35A4A904217D305
:102EB0007A693AB1786A7B600BF0BDFE7B680028C6
:102EC0007FF47CAFBA68002A49D00F2E3DD9524911
:102ED000524840F24D420BF0EBFE40F24D4182E68B
:102EE0007A693AB1786A7B600BF0A5FE7B680028AE
:102EF0007FF464AF1BF0010F0AD00F2E25D946498D
:102F0000464840F243420BF0D3FE40F243416AE6AA
:102F10001BF0040F3FF452AFB8F10F0F08D93E4930
:102F20003E4840F246420BF0C3FE40F246415AE6AC
:102F300008F1280207F1300008F1010102EB000856
:102F400008F8105C5FFA81F838E706F1280207F10B
:102F50003000711C161806F8205CCEB22EE7B8F1CE
:102F60000F0F08D92C492D484FF48A620BF0A0FEB0
:102F70004FF48A6137E608F1280207F1300C08F1B6
:102F80000100944407F1580252FA80F008F1020857
:102F90000CF8101C5FFA88F800F8105C0EE70020AF
:102FA00023E71BF80A3087F8373054F82390D7F816
:102FB00084302BB3D7F888309B4521D2D7F88430A2
:102FC00033F81B803A6AFB6A012107F13700984702
:102FD00000281ADB0544B8F1000F06D14846FEF779
:102FE000A9F800F101081FFA88F83A6AFB6A41461D
:102FF00048469847002808DB05440BF1010B26E7FB
:103000004FF00008DEE7454610E605460EE600BF35
:1030100054FF00006021010094090100E80501004F
:1030200080B505460E46174698460AF0A9F90346AC
:103030000CF086FFDFF83490044649F80030424631
:1030400039463046A8470A4B1B7853B909490A4804
:1030500040F246320BF02CFE064840F246310BF0AF
:103060001EFE54F8090003F089FC00BF08000000B0
:10307000972B0020760A0100E805010038B50D46BF
:103080000446202200210CF0D8FEEB68E361AB6817
:10309000A3612B6823626B6863620022A2622A69C3
:1030A00023B1591E194208BF42F0010222610122D8
:1030B000002104F12C000CF0D0FD40B1044905487A
:1030C0002F220BF0F5FD02482F210BF0E8FD38BD53
:1030D000A10A0100E80501002DE9F04F89B0CDE912
:1030E0000123436A00268B420446884605960796CC
:1030F000B24652D300F114074FF0200BEFF31183C7
:1031000000938BF31288BFF36F8F3846DDF8009081
:103110000AF060FB40B94649464888220BF0C8FDDA
:10312000882143480BF0BBFD38460AF077FB079A2D
:103130002AB1314620460BF0A3FE0023079306A9CF
:1031400020460BF0C2FD0699414505462ED3226864
:10315000236A13F8221021F0030103F8221003EB75
:10316000820A2168424620460BF0D3FDE3682060C6
:10317000984216D0002538460AF03AFB50B389F33E
:103180001188BFF36F8F059929B1A3690BB1204650
:10319000984700230593002DB0D1504609B0BDE8F3
:1031A000F08F236943F008032361E3E718B1204659
:1031B0000BF0C9FDDFE7DDE90132134330D00391A5
:1031C0000CF079FD039958BB009B4BBB38460AF0C5
:1031D0000FFB40B9164917484FF49A720BF068FD7F
:1031E0004FF49A719DE785F31188BFF36F8FDDE986
:1031F000012304F12C0008F0C3FE0546EFF311890A
:103200008BF31288BFF36F8F38460AF0E3FA002879
:1032100081D03846B5FA85F50AF000FB6D09AAE7BA
:1032200007AB05AA204626680BF0AAFD0546A2E7D3
:10323000C70A0100E80501002DE9F0410446C36911
:1032400008460D46984704F114060746EFF3118827
:10325000202383F31288BFF36F8F30460AF0BAFA47
:1032600040B91649164888220BF022FD88211348E0
:103270000BF015FD30460AF0D1FA2B7843F001032C
:103280002B7061683A4620460BF043FD6060204693
:103290000BF011FE30460AF0ABFA40B90749084876
:1032A0004FF49A720BF004FD4FF49A71DFE788F344
:1032B0001188BFF36F8FBDE8F08100BFC70A01001E
:1032C000E80501002DE9F0470446002700F1140647
:1032D000EFF31188202383F31288BFF36F8F3046FA
:1032E0000AF078FA054640B93549364888220BF08D
:1032F000DFFC882132480BF0D2FC30460AF08EFA0F
:103300002369A16813F0080F02D16368994200D9BC
:10331000636A5B1A002B3CD0206A10F8213013F04E
:10332000030200EB810937D0022A04D150F8212092
:103330005FEA920A05D1DA071BD4E3694846984749
:103340008246A168524620460BF0E3FC5146A0603D
:1033500020460BF0ECFC2F4630460AF049FAE8B95B
:10336000174918484FF49A720BF0A2FC4FF49A7167
:10337000C0E743F0020300F821304846E369A5683E
:1033800098472946024620460BF0C3FC0025A06062
:10339000E2E71D46A946DFE71546FBE788F31188FB
:1033A000BFF36F8F002D93D137B1B9F1000F03D167
:1033B00004F12C0008F082FD4846BDE8F08700BF0C
:1033C000C70A0100E80501002DE9F0410446C36980
:1033D00008460D46984704F114070646EFF3118896
:1033E000202383F31288BFF36F8F38460AF0F2F977
:1033F00040B92349234888220BF05AFC88212048F1
:103400000BF04DFC38460AF009FA2B786FF30003F5
:103410002B7023699B0705D5E268236A03EB8203BF
:103420009D421DD12B786FF341032B70D4E90231FB
:10343000994204D1324620460BF06BFCA060314625
:1034400020460BF074FC38460AF0D2F968B90C49F2
:103450000C484FF49A720BF02BFC4FF49A71CEE7A4
:103460002B6866F39F032B60EDE788F31188BFF3A9
:103470006F8F04F12C00BDE8F04108F01FBD00BFC4
:10348000C70A0100E805010070B5044600F1140503
:10349000EFF31186202383F31288BFF36F8F284642
:1034A0000AF098F940B91649164888220BF000FC3A
:1034B000882113480BF0F3FB28460AF0AFF9236983
:1034C000A06813F0080F02D1636898420ED9646AAD
:1034D000241A28460AF08CF950B9094909484FF4D2
:1034E0009A720BF0E5FB4FF49A71E2E71C1AF0E7D1
:1034F00086F31188BFF36F8F201E18BF012070BDA7
:10350000C70A0100E80501002DE9F84F0446084606
:10351000A38B1907164612D4022803F0070162D1C3
:1035200020460BF0F0FC88B10138042800F2258118
:10353000DFE810F0590023017E00C800F5000128E3
:103540000CBF43F0100143F02001A18304F11400EB
:103550000AF04EF9002800F0AB8086F31188BFF323
:103560006F8FBDE8F88F03F00702501F01281ED8A7
:103570000020062A2768C4E9000014D13A4603E077
:10358000E08B0130E0831268002AF9D123F00703B1
:1035900043F00202A28320460BF0B5FC90B342F048
:1035A0002002A2832EE023F007039AB2F2E7042A56
:1035B00033D123F007039AB2A28320460BF0A3FC79
:1035C00010B142F02002A283A38B03F007098945C2
:1035D00040F0DC80A18BCA0640F1218121F010036C
:1035E000A38301F00701D4F81880A38BB8F1000F72
:1035F000B9DA0022276823F00703C4E9002243F068
:103600000103A383A38B03F00709894540F0BF8022
:10361000002FDFD00025AA4640E08549854840F2CA
:103620001B120BF045FB40F21B1181480BF037FBDE
:1036300041B17F497F484FF4AB720BF039FB4FF437
:10364000AB71F2E7236843B979497A4840F25712DF
:103650000BF02EFB40F25711E7E723691D6845B9CF
:10366000734974484FF4AD720BF022FB4FF4AD7107
:10367000DBE7A38B23F0070343F006039BB2A3838E
:103680000F4688464FF00609A268002A40F0818064
:10369000002F40F08180002D9CD0BA4643F00803F3
:1036A00004F1140BA38358460AF0A2F8002875D140
:1036B000614960484FF49A720BF0FAFA4FF49A712C
:1036C0005D48B3E7022908D059495A4840F25D12D3
:1036D0000BF0EEFA40F25D11A7E7E78B47B15449D2
:1036E00054484FF4AF720BF0E3FA4FF4AF719CE71C
:1036F00023695D6845B94E494E4840F261120BF0AE
:10370000D7FA40F2611190E7A38B23F0070343F04F
:1037100004039BB2A383B8464FF00409B4E7012920
:1037200008D0434943484FF4B2720BF0C1FA4FF44A
:10373000B2717AE7236843B93D493E4840F26512C9
:103740000BF0B6FA40F265116FE723699D6845B941
:10375000374938484FF4B4720BF0AAFA4FF4B471F9
:1037600063E7A38B23F0070343F005039BB2002715
:10377000A383B8464FF0050986E72D492D4840F24E
:103780006B120BF095FA40F26B114EE70027002503
:103790007AE74FF0010A81E792467FE786F31188C6
:1037A000BFF36F8FBAF1000F16D147BB15B1234994
:1037B0002046A847EFF31186202383F31288BFF336
:1037C0006F8F58460AF006F808BB1B491948882233
:1037D0000BF06EFA882173E7A1680029E5D00E6826
:1037E0000029E2D0D1F804A043464A462046D047FB
:1037F0001EB1336831461E46F2E73346FAE73946D2
:1038000043464A4620463F680BF0A9FBCDE75846A1
:103810000AF004F8A38B23F00803A383DAE68B06EF
:103820007FF594AE21F02003A38301F0070177E632
:10383000FF0A0100E8050100C70A01004138000045
:10384000F8B504460D4600F11406EFF31187202366
:1038500083F31288BFF36F8F304609F0BBFF40B986
:1038600009490A4888220BF023FA074888210BF0FF
:1038700016FA304609F0D2FFA5613A4620460121EA
:10388000BDE8F840FFF740BEC70A0100E8050100A7
:103890002DE9F04704460F460BF051FB051E5DDB9A
:1038A00004F11409EFF3118A202383F31288BFF384
:1038B0006F8F484609F08EFF804638B93349344847
:1038C00088220BF0F5F9882130483CE0484609F0A1
:1038D000A5FFE38BA68B4FF6FF72934206F0070617
:1038E0003FD0022E10D10133E3833546484609F01C
:1038F0007FFF00283BD1254925484FF49A720BF0F1
:10390000D7F94FF49A71DFE7062E13D8DFE806F0F7
:10391000092C1212090409006FF085054FF0000808
:10392000E4E700233B6063687BB9C4E900777EB1BC
:103930003546F3E7174916484FF4E4720BF0B8F92F
:1039400014484FF4E4710BF0AAF91F606760EEE7CA
:10395000524602212046FFF7D7FD35462846BDE8EE
:10396000F0876FF00A05D9E76FF00405D6E78AF310
:103970001188BFF36F8FB8F1000FEFD000233246EC
:10398000394620460BF0EBFAE8E700BFC70A010012
:10399000E8050100FF0A0100F8B5054600F114062C
:1039A000EFF31187202383F31288BFF36F8F304624
:1039B00009F010FF38B92049204888220BF078F927
:1039C00088211D4825E0304609F028FFAC8B04F023
:1039D0000704022C12D0012C0CBF6FF004046FF00E
:1039E0008504304609F004FF08BB134913484FF41F
:1039F0009A720BF05DF94FF49A71E2E7EB8B53B9D1
:103A00000F490E4840F2EF120BF052F90C4840F209
:103A1000EF110BF044F9013B9BB2EB83002BE0D19B
:103A20003A4621462846FFF76FFD2046F8BD87F34A
:103A30001188BFF36F8FF8E7C70A0100E80501009E
:103A4000FF0A01002DE9F0410E460546002845D049
:103A5000002943D000F11407EFF31188202383F3EA
:103A60001288BFF36F8F384609F0B4FE38B91D498C
:103A70001D4888220BF01CF988211A4816E03846A8
:103A800009F0CCFE31462846AC8B0BF021FA78B118
:103A900004F00704231F022B0CD91449124840F2EA
:103AA0002D220BF005F9114840F22D210BF0F7F80B
:103AB0006FF07704384609F09BFE40B909490A487F
:103AC0004FF49A720BF0F4F84FF49A71D5E788F33B
:103AD0001188BFF36F8F2046BDE8F0816FF01504A9
:103AE000F9E700BFC70A0100E8050100FF0A01006D
:103AF00008B54268816002F00302032A034602D03F
:103B00002AB1002000E0006800225A6008BD044984
:103B1000044845220BF0CCF8014845210BF0BFF8D2
:103B2000240B0100E80501002DE9F34106460F468C
:103B300015464FF000082A4601A930460BF061FAFD
:103B4000044640B10246394601980CF068F92D1B35
:103B5000A0442744EFD14246311D30460BF06FFAA6
:103B600040B10649064848220BF0A2F80348482114
:103B70000BF095F8404602B0BDE8F0814A0B010019
:103B8000E80501002DE9F34107460E4615464FF0C2
:103B900000082A4601A938460BF042FA044648B10B
:103BA0002EB10246019930460CF039F926442D1BFE
:103BB000A044EED1424607F10A0138460BF03FFA25
:103BC00040B10649064863220BF072F803486321AE
:103BD0000BF065F8404602B0BDE8F0814A0B0100E9
:103BE000E805010030B51049104889B000220CF0FA
:103BF000DCF80F4D0F494FF400320023CDE90623C6
:103C000000240E23CDE90334CDE901440A4B00948E
:103C10004FF40062284608F081FD084928460CF060
:103C200050F8204609B030BD753D00003812002024
:103C3000B00D0020C02B002089400000750B010052
:103C40002DE9F047DFF85880044607464FF0010998
:103C500014B93846BDE8F08794FAA4F5B5FA85F5AD
:103C600009FA05F32E0108EB05156FEA030A24EAA9
:103C700003042B7B002BEBD058F806301B694BB9A3
:103C80004644042273682846196807EA0A070BF0BD
:103C900024FADDE7284698470028D9D1F0E700BF8D
:103CA000040301002DE9F047DFF8B4902D4CA9EB97
:103CB00004038F2B80460F460AD92B492B484FF41B
:103CC000A6720AF0F5FF4FF4A67127480AF0E7FF45
:103CD00027480BF0E2F9064658B300252846BDE810
:103CE000F087237B83B12368DB680BB120469847BC
:103CF000636883F806A023681B6993B9636804228C
:103D0000196820460BF0E9F9013610344C4514D9F6
:103D1000154916484FF4AC720AF0CAFF4FF4AC7163
:103D2000D3E7204698470028E8D00AFA06F31D4357
:103D3000EAE705464FF0010AE8E7D2D3B8F1000FF1
:103D4000CCD0002DC9D02846FFF77AFF0546002FBA
:103D5000F7D000214FF4A47009F07CFAF1E700BF1E
:103D600014030100040301007D0B0100E8050100BC
:103D700024160020014808F0A1B800BF500C002014
:103D8000014B53F8200070474C03010008B503466F
:103D900008462BB1044A136000F082FD002008BDE4
:103DA0006FF01500FBE700BFC809002010B5044CF8
:103DB000237813B9034808F081F80123237010BD5C
:103DC000682B0020500C002010B504460B480BF067
:103DD00064F95CB1BFF35B8F094B53E8001F0139F5
:103DE00043E80012002AF8D1BFF35B8F05480BF0BF
:103DF000E8FF0548BDE8104008F060B81C16002038
:103E00002016002038120020500C00200020064B05
:103E1000BFF35B8F014653E8000F43E80012002A0E
:103E2000F9D1BFF35B8F70471C16002070B5FFF708
:103E3000EDFF0E4C0E4E0546B44215D90D490E4805
:103E40004FF403720AF034FF0A484FF403710AF08A
:103E500026FF63685B792BB123685B6813B1294641
:103E6000204698471034E7E7F3D370BD0403010000
:103E7000140301007D0B0100E805010010B5044C9E
:103E800004492046FFF7FAF8034B1C6010BD00BF41
:103E90007C0B00203803010010160020134A144840
:103EA000002310B51370134A1360134A4FF40041F6
:103EB0001360FFF76BFFFFF7E1FF104B1049184647
:103EC0008B4211D90F49104840F227120AF0F0FE38
:103ED0000C4840F227110AF0E2FE1A1A5C6812112F
:103EE000013222711033EBE7F7D310BD692B0020AC
:103EF00097F000001C16002020160020040301008B
:103F0000140301007D0B0100E805010001460022B9
:103F100001480023FFF7E0B87C0B00200148FFF7C1
:103F2000D1B900BF7C0B0020024B01461868FFF797
:103F30004BBA00BF101600200148FFF7A5BA00BF1A
:103F40007C0B002070B52F4B1878002859D0FFF754
:103F5000E5FF0546002840D12B4B2C4C1B68002B5D
:103F600019DD0BF020FF4FF47A72A0FB020302FB75
:103F70000131C30BD4E9002043EA41439B1A4FEAC5
:103F8000D13140F2E93261EB0001934271F100015D
:103F900001D3FFF74BFFD4E9003213F57A7342F1F6
:103FA0000002C4E90032BDE87040FFF7C5BF636896
:103FB0005B7923B1236829461B6820469847103453
:103FC000B4420DD9124913484FF400720AF070FE42
:103FD0000F484FF400710AF062FE0F4C0F4EEFE7EE
:103FE000E5D32846FFF7A0FFBFF35B8F0C4B53E8E8
:103FF000001F013943E80012002AF8D1BFF35B8F9C
:10400000AAE770BD682B00201C160020301200208B
:104010007D0B0100E8050100040301001403010009
:104020002016002070B5134D297809BB0120FFF739
:1040300039FE114C114EB44213D91149114840F2C6
:10404000C5120AF035FE0E4840F2C5110AF027FEEF
:1040500063685B791BB1236820469B6898471034DE
:10406000E9E7F5D3FFF76EFF0028FBD101232B70A2
:1040700070BD00BF692B0020040301001403010080
:104080007D0B0100E80501002DE9F047344B354F69
:10409000FB1A1B0909D13449344840F2A9320AF00D
:1040A00007FE40F2A931304815E000210846FFF72D
:1040B000F9FD044688B140F267684FF000092C4BC7
:1040C0001B787BB92B49294840F246320AF0F0FDB3
:1040D000284840F246310AF0E2FD4FF0FF384FF039
:1040E000FF39ECE70BF02CFF234B244A1B581360DD
:1040F00033B1234B1B68092B02DD224807F0DEFE9B
:10410000DFF880A0002544B12046FFF799FD044662
:1041100018B94FF0FF384FF0FF39FFF713FF06468D
:1041200028B935B942464B46504607F029FF354677
:10413000E9E70B4D08E0F5D22B689B691BB1002223
:104140001146284698471035BD42F4D9064907481C
:1041500040F29D320AF0ACFD40F29D31A3E700BF72
:1041600004030100140301007D0B0100E8050100B8
:10417000972B0020760A0100080000001816002086
:1041800020160020500C002013B526480AF085FFA9
:10419000254B1B785BB3EFF31184202383F3128844
:1041A000BFF36F8F214809F015FB40B92049214822
:1041B00088220AF07DFD88211D480AF070FD1B4809
:1041C00009F02CFBFFF7BEFE184809F011FB40B9BF
:1041D000174918484FF49A720AF06AFD4FF49A7121
:1041E000EAE784F31188BFF36F8F02B010BD124B62
:1041F0001B68002BF9D050B900220023CDE9002321
:104200000E484FF40042002309F0D4FDEDE70928E1
:10421000EBD10A480BF0D5FD094802B0BDE81040CB
:1042200007F04CBE20160020692B00201416002039
:10423000C70A0100E8050100181600203812002006
:10424000500C002010B5064B1B68044698472146C9
:10425000A0600448FEF7F0FFBDE81040FFF794BFF0
:10426000C80900207C0B0020044A054B9B1AB1EBC7
:10427000D30F34BF52F83100002070478C02010088
:10428000040301002DE9F04F8FB004AFC1F34A28B9
:10429000B8600D4691467B600C0DB8F1000F67D0F9
:1042A000002607F114034FF0040B4FF00A0AC7F879
:1042B0000C80C7E907667E620193CDF808B0CDF89F
:1042C00000A007F11C03F96832464846FEF778FC67
:1042D000B0F5006F03461CD36C468AB0D9F80410C1
:1042E00004AB2C48C3E9050140F2FF71D9611A46BD
:1042F0004FF400711984284B42F8103F2748334689
:104300004FF41251FFF7BEFFA5462C37BD46BDE85E
:10431000F08FC0F30A0804F11700184420F00700DA
:1043200080083B60FFF7F2FD68F35325044638B37D
:104330003B681B4AC7E9083600F1100107F1140376
:10434000F961CDE900A3CDF808B0F96807F11C03C5
:104350004846FEF735FC002812DA124912484FF49D
:10436000A3720AF0A5FC0F484FF4A3710AF097FC62
:1043700004F1170020F007008008FFF7C7FD04468E
:1043800068F353257B68B9682A4620460AF0C5FEC3
:10439000BBE700BFB70B010004000001A40201004D
:1043A000EDF00000F60B0100E80501002DE9F04FEB
:1043B00087B0DDE91279DDE9106A0446039193467E
:1043C00098461FB3CDF800903B465246102100207E
:1043D000CDF81490FEF7F8F9051E0ADA25492648AB
:1043E00040F265120AF064FC40F2651121480AF0BF
:1043F00056FCB5F5006F0ADB204A214840F2FF73F6
:10440000022107B0BDE8F04F0AF0E0BE3D4606F1DC
:104410001700284420F0070004F007048008FFF785
:1044200075FD0BF0070BE40044EA8B1444EA4524C5
:1044300044EA0654064698B197B1CDF800903B4641
:10444000524629461030FEF7BFF9002808DA09491C
:1044500009484FF4C4720AF02BFC4FF4C471C5E74D
:10446000039943462246304607B0BDE8F04F0AF0B4
:1044700054BE00BFF60B0100E8050100220C01004C
:10448000A4020100406820B1034BC01A40F3CF00E2
:1044900070474FF0FF3070478C0201000EB403B537
:1044A00003AB014653F8042B0448019302F086FD48
:1044B00002B05DF804EB03B0704700BFDD440000BC
:1044C000CA0605D48B064CBF02490349FFF7E6BF75
:1044D000704700BF5B0C01005A0C010038B54B68F7
:1044E0001A68CB689A4205460C4602D108460AF083
:1044F00091FE6368BFF35B8F53E8002F511C43E8C4
:1045000000100028F8D1BFF35B8FA3689D54636847
:104510001A68E3689A4208D90549064872220AF0E7
:10452000C7FB034872210AF0BAFB002038BD00BF68
:104530005D0C0100E80501002DE9F04F89B09B46B4
:10454000149B06939DF84CA0159B0593169B179EF4
:10455000049304460D469046BAF1000F00F0AC807B
:10456000BAF1040F0AD9A249A24840F24D220AF03A
:104570009FFB40F24D219E480AF091FB06F48073A8
:1045800007930AF0A8FD06F00209024600283FD072
:1045900099492046FFF782FF0746B9F1000F08D07E
:1045A00016F0440F36D195492A462046FFF776FF8C
:1045B000074406F0010353B1914B924953F82A2066
:1045C000914B2046002A08BF1A46FFF767FF06F402
:1045D0008073002B4AD006F00803002B64D1B8F199
:1045E000000F67D0894942462046FFF757FF05462E
:1045F000069B3D44002B6ED1049B002B40F0828033
:10460000F30700F1EF8031462046FFF759FFE3E062
:104610000746C2E77E4B18680028C9D07D4B4FF48F
:104620007A791B68B5FBF3F54FF46163B5FBF0F1E4
:1046300000FB115509FB05F54FF03C0CB1FBF3F203
:1046400003FB1211B5FBF0FEB1FBFCF300FB1E55A2
:104650000CFB131109FB05F50091B5FBF0F56E4954
:10466000CDE901E52046FFF719FFA1E706F00803B1
:10467000EBB16A4B6A4953F82A202046FFF70EFF38
:104680000546B8F1000F05D0604942462046FFF7C5
:1046900005FF0544BBF1000FAAD062495A462046E7
:1046A000FFF7FCFE0544A3E74FF0000BE1E706F03F
:1046B0000805E6E745469BE7BBF1010F069B06D1DF
:1046C000D3B9049B002B00F0878000251AE0002B53
:1046D000F7D0554811E05548069B554922460AF047
:1046E00079FA00280BDA4249424840F2A7220AF040
:1046F000DFFA40F2A7213EE74C485546ECE7049B21
:10470000002B65D0DFF82C81DFF82C91049F314617
:10471000102F204628BF1027FFF7D2FE4FF0000BC6
:104720005D4542DC059B49461A782046FFF7B6FEF8
:104730004FF0010B1BF0070F03D141462046FFF756
:10474000ADFE5F4538D9059B494613F80B2020463E
:10475000FFF7A4FE0BF1010BBBF1100FEAD13749B3
:1047600020464FF0000BFFF799FE5A46059B9A5CD6
:10477000A2F120015F2928BF2E2231492046FFF7F0
:104780008DFE0BF1010BBBF1100F1AD01BF0070FC0
:1047900003D141462046FFF781FE5F455A46E5D8E2
:1047A00041462046FFF77AFEEBE741462046FFF7F9
:1047B00075FE0BF1010BB3E722492046FFF76EFEB1
:1047C000C8E7059B3B440593049BDB1B04939DD1E9
:1047D000BAF1000F7FF414AF204609B0BDE8F04FE6
:1047E0000AF018BD084A07492046FFF757FE0AE7B6
:1047F0005D0C0100E8050100910C0100950C010021
:104800005C030100BA0C01008C0C0100BD0C01001E
:104810002C160020281600209E0C010070030100B9
:10482000C10C0100C70C01002FF20000DD440000A4
:10483000BD6F0000D40C0100CC0C0100D60C0100AF
:10484000D80C0100D20C010073B542F20F738B42F9
:1048500028BF0B4605680F4A04460521684609F043
:10486000DBFD63680C495B6806460B2228460AF0AC
:10487000C3FC63683246694628465B680AF0BCFCA4
:10488000636806495B681B2228460AF0B5FC02B043
:1048900070BD00BF5B190100F70C0100DB0C0100CB
:1048A000074A00210123904206D8064A01B9012394
:1048B0001360054B1860704740085B000121F2E768
:1048C00040420F00281600202C160020014B012228
:1048D0001A7070476A2B0020014B00201960704746
:1048E000441600200148FFF7AFBF00BFA00301003E
:1048F00010B5064B18680C46FFF742FA21460346EE
:10490000BDE8104002480F22184700BF441600209F
:10491000A0030100F8B5094D094B0A4ED5E900473F
:1049200001221A700CB92C60F8BD214630463A4677
:1049300000F01EF8241A0644F4E700BF38160020E1
:104940006B2B00206C2B002010B9074B18707047A0
:10495000064B1B781BB141F288300BF018B9A4202C
:10496000002108F077BC00BF6A2B00206B2B0020D1
:104970002DE9F047DFF878901E4F80460E4604245C
:1049800099F80050A5B90BF0F5F832468246414639
:10499000284606F059FC054650460BF0F3F8E5B101
:1049A00001233B7099F8003073B93046BDE8F087B9
:1049B00032464146002006F047FC0546EFE7204618
:1049C000FFF7C2FF651E2C46002006F081FC002880
:1049D000EBD03B78002BF2D1E7E73B78002BE4D01B
:1049E000013C2046FFF7B0FF3B78002BC8D1DCE745
:1049F0006B2B00206A2B0020014B036000207047C6
:104A0000B00301002DE9F0471A4CDFF86C80DFF8A5
:104A10006C9005460E461746444525D91849194855
:104A20004FF4BB620AF044F915484FF4BB610AF039
:104A300036F96268D9F824309A4213D3A3698BB14E
:104A4000A9889078C9B2884205D13A4631462846AD
:104A5000BDE8F04718475279012A03D13A4631465A
:104A6000284698472434D7E7E3D36FF08500BDE8A4
:104A7000F08700BF680D0020B00D00204816002010
:104A8000330D0100E80501002DE9F041134B144FEF
:104A90005E6A144BBB421BD91349144840F2BB5207
:104AA0000AF006F9104840F2BB510AF0F8F85C68C9
:104AB000B4420BD31D694DB194F802C08488E4B2AE
:104AC000A44503D12B46BDE8F04118472433E1E764
:104AD000EDD36FF08500BDE8F08100BF48160020DF
:104AE000B00D0020680D0020330D0100E805010025
:104AF000024B00221A605A60704700BF0317002063
:104B00002DE9F041114CDFF8488005460E46174666
:104B1000444516D90F4910484FF4C1620AF0C8F84D
:104B20000C484FF4C1610AF0BAF863690BB9243438
:104B3000EEE73A463146284698470028F7D1BDE8C7
:104B4000F081F2D36FF08500F9E700BF680D002017
:104B5000B00D0020330D0100E8050100430670B5DB
:104B60001CD0114B114CA3421AD9114911484FF4D2
:104B70007D720AF09DF80E484FF47D710AF08FF8AF
:104B8000196A1E7F00220439D5B2AE4201D82433FF
:104B9000E9E7013211F832508542F5D1012001E0F8
:104BA000EED3002070BD00BF680D0020B00D0020C6
:104BB000330D0100E8050100F7B58488E4B2204612
:104BC0000F468DF80740FFF7C9FF0546B8B114F04E
:104BD0007F0F154E02D096F8BA301BB323468FB123
:104BE000124A134803210AF065FB9DF8070002F002
:104BF000C1FFF3691BB10DF1070108209847284652
:104C000003B0F0BD0B4A0A4803210AF053FB9DF89C
:104C1000070002F0E1FFF369002BF0D00DF107016E
:104C20000920EBE71D46EAE748160020650D010064
:104C3000EC020100780D010008B5044A0346012189
:104C400003480AF037FB002008BD00BF8D0D0100AE
:104C5000EC02010038B505460AF0E4FC10F1780FCB
:104C6000044611D10D4A0E482B4602210AF022FBC0
:104C700028460AF021FB0B4AD2F8C43023EA00038D
:104C8000C2F8C430002407E00028F1D0064A0448E6
:104C90002B4601210AF00EFB204638BDA80D01006D
:104CA000EC02010048160020C90D010008B50948B2
:104CB0000378C3F341130A3350F823303BB100F1BA
:104CC000080200F110019847C043C00F08BD184604
:104CD000FCE700BF4816002004282DE9F74FDFF855
:104CE000C89004460F4616D0012830D1DFF8BC80AA
:104CF00098F8B9305BB300F0E7FE2D4D4D4532D941
:104D00002C492D4840F2C24209F0D2FF40F2C24184
:104D1000284809F0C4FFFFF7EBFEE7E702EBC60601
:104D2000019230790AF07EFC834630790AF0C4FAA9
:104D3000D8F8C430019A23EA0003BBF1000FC8F889
:104D4000C4300AF1010A12DA002388F8B930184D8C
:104D50004D451BD91749184840F2EE4209F0A8FF0B
:104D600040F2EE41D4E7EFD22A6A4FF0000A2B7FDF
:104D70005FFA8AF6B342D1D82435BFE7EB681BB19E
:104D80003A462146284698472435E1E7F6D3074BB3
:104D90001B6A2BB13946204603B0BDE8F04F1847D7
:104DA00003B0BDE8F08F00BFB00D00204816002012
:104DB000680D0020330D0100E805010073B50446BD
:104DC00080788DF8000023796279294D43EA022327
:104DD000ADF80230E37803F003038DF804300AF0F5
:104DE0006BFAD5F8C430184206460CD0A478204699
:104DF00000F04CFE2046FFF72DFF0AF05CFF10B9D3
:104E0000962008F059FA684602F086FE10F1780FF5
:104E10009DF800301BD1174A174802210AF04AFAC0
:104E20009DF8000002F014FF10F1780F19D19DF8E1
:104E30000030124A104802210AF03CFAD5F8C4307A
:104E40000120334385F8B900C5F8C43007E00028D5
:104E5000E6D00B4A084801210AF02CFA002002B0E3
:104E600070BD0028EAD09DF80030064AF2E700BF86
:104E700048160020EB0D0100EC020100320E01008B
:104E80000E0E0100520E01002DE9F047A44DAB6952
:104E900004460E461746C3B9207800F01F000128CB
:104EA00077D0022800F0DE8000BB94F900103A6849
:104EB000637800292EDA062B0CD0082B25D0ABB94D
:104EC000537001231370022306E198470028E3D1B1
:104ED00000200DE06388190A0A1F012A8C4605D9B3
:104EE000072903D8DAB26B6A1C781CB96FF0150079
:104EF000BDE8F0875D78654503D1824200F0E78028
:104F000001302344F0E71B78E6E095F8BA301370DF
:104F10000123E1E0052B11D0092BE7D163886E6AEC
:104F2000002B33D1FFF7E4FD638885F8BA30EB69D5
:104F3000002BCDD07B4903209847C9E76088C0B2D9
:104F400002F098FD0028C3D0D0E77378042B10D06E
:104F5000052B11D0022B04D177796388BB4208BF9F
:104F6000012033781E443378002BEED10028BDD0C9
:104F7000D8E796F80380F4E76388BB42F1D1B8F133
:104F8000000FEED13046FFF719FFEAE7FF27B846DA
:104F9000E9E795F8BA30D7F800C0002BA6D0A28870
:104FA0006F6A5FFA82FE3B46187800289ED05978D7
:104FB000022904D193F80480F04500F28F80034465
:104FC000F2E78CF800308CF80130316080E71F4444
:104FD00090E00B2B8AD100264FF0FF08C146B24665
:104FE00006E07B78042B0FD0052B21D03B781F44A3
:104FF0003B78002BF5D1EB6913B151460720984758
:10500000002E7FF465AF71E797F80280A38897F8C8
:1050100003909845EAD163889945E7D1B8F1070F25
:105020001DD805EB0803BA4683F8BB900126DDE7DF
:10503000A3884345DAD16388DBB24B450AD0BE78FA
:10504000304600F023FD3046FFF704FEB0FA80F64C
:105050007609CBE73846FFF7B1FE0646C6E7BA4603
:105060000026C3E794F900206378002A19DA002BA0
:105070007FF43CAFA4883F68E4B22046FFF76EFDA2
:1050800000283FF433AF630604D095F8BA30002B04
:105090003FF42CAF3946204602F0BEFD00237B7062
:1050A00011E7012B08D0032B7FF420AF6388002B7E
:1050B0007FF41CAF012103E0618800297FF416AF63
:1050C0002046FFF779FD00287FF402AF0EE70229A2
:1050D0003B607FF418AF5B883360F9E694F9000019
:1050E00063780028BFF675AF002B3FF46AAF0A2B38
:1050F0007FF4FCAE3B78002B3FF4F8AE79780429BE
:105100007FF465AFB9788A427FF461AF072A96BF12
:105110005219002392F8BB308CF80030F8E600BF3B
:1051200048160020021700202DE9F84FDFF83CB0A8
:10513000DFF83CA005460F469046994604264B46AC
:1051400042463946284602F0ADFD10F10B0F0446E9
:1051500009D12B465A46022150460AF0ABF807F017
:1051600093FF013EEBD12046BDE8F88F730E01009E
:10517000EC02010013B5164C237DF3B9E268A16877
:10518000019201AB8020FFF7CFFF019AA36813447F
:10519000A360E3689B1AE3606BB962B12369E2889C
:1051A0009A4208DD94F8C82093FBF2F102FB113318
:1051B0000BB90123237502B010BD00231A4619460E
:1051C0008020237502B0BDE8104002F06BBD00BF27
:1051D000481600207FB500230D460193064600289F
:1051E00062D100293AD108220B460DEB02010AF0E8
:1051F00032FA002803DA802002F0BCFC1FE0354CB4
:10520000029A2260039A626004F13802A2609DF95A
:105210000820BDF80E302575002AC4E9035510DBBF
:10522000802B09D92C4A2D48012109F0C6FF802086
:1052300002F0A0FC2846DFE71BB1C4E9033304B049
:1052400070BDFFF733FD0028D5D0E28823699A426C
:10525000D4BFE260E360FFF78DFFF0E71D4CD4E9B7
:105260000212002A01AB05DC02460AF0F4F900281C
:10527000E5DAC0E70AF0EFF9002804DA802002F04E
:1052800079FC3046B8E7019AA3681344A360E36849
:105290009B1AE360002BD2D104F13803A360FFF71F
:1052A00005FD0028D7D1A6E7802807D1094BDA6889
:1052B000002AD0D11B7D002BCDD1C0E70849094879
:1052C0004FF4C57209F0F4FC05484FF4C57109F0BC
:1052D000E6FC00BF481600209A0E0100EC02010017
:1052E000330D0100E8050100054B064A9A62064AA3
:1052F000DA62064A1A63064A58629A6100207047C9
:1053000048160020894E0000894A0000014B000029
:10531000054A00002DE9F3410446534D53484FF030
:10532000FF334FF0FF3206F037FB95F8B8306BB122
:105330004F4A5048022109F040FF6FF077044B4874
:1053400006F0E0FB204602B0BDE8F0816B6A6BB965
:1053500000F0E6F8FFF7C8FF6B6A3BB9464A4548DC
:10536000012109F02AFF4FF0FF34E8E743482C629F
:10537000E8616E6A02F0D6FD02F04AFB041EDEDB35
:1053800000F0C4FB041EDADB7378012B01D1F37942
:105390003BB93B4A3748012109F00FFF6FF0150474
:1053A000CDE70026684685F8C830ADF802308DF8A4
:1053B00004608DF8006002F0AFFB041EBFDB8027A5
:1053C00068468DF8007002F0A7FB041EB7DB2D497C
:1053D000304602F093FD041EB1DB2A49384602F044
:1053E0008DFD041EABDB284CDFF8A08044451DD9A1
:1053F000274928484FF4C36209F05AFC24484FF467
:10540000C36109F04CFC276A0026227FF3B29A425E
:1054100001D82434EAE707EBC30257F833101079B8
:1054200002F06CFD01360028EFD09CE7EBD30020A2
:1054300002F00EFC041E82DBD5F8C430802043F05D
:105440000103C5F8C43002F003FC041EFFF677AF79
:10545000D5F8C43043F48033C5F8C430012385F84F
:10546000B83000246BE700BF481600202C0C002049
:10547000B30E0100EC020100D60E0100D94C000071
:10548000FB0E0100D5510000680D0020B00D00207A
:10549000330D0100E805010030B51F4B8BB005AAA4
:1054A00003F1100518685968144603C40833AB4269
:1054B0002246F7D11B7823701022002101A80AF0A0
:1054C000BCFC1222002115480AF0B7FC102101A8EB
:1054D0000AF059F900281BDD0828B8BF0820093850
:1054E00001AB0E491A18002012F8013F0AAC04EB78
:1054F000131403F00F0328336B44013014F8144CD9
:1055000013F8143C0C7008284B7001F10201EBD128
:1055100002480BB030BD00BF350F01007D2B0020CD
:105520002DE9F04F994B87B093F800A000AFBAF186
:10553000000F04D096481C37BD46BDE8F08F944C50
:1055400000264FF00119FE603546B04623783BB97E
:10555000904B02349C42F3D18C4A01231370E9E74B
:105560006378052B28D8DFE813F0C20006000E018F
:10557000C2002A006300402387F810A07B8287F8CE
:1055800014A007F1100002F09BFA98B108237B8267
:1055900007F1100002F094FA60B17F497F48A7F844
:1055A00012A040F28F1209F083FB40F28F117A486B
:1055B00009F075FB7B8AE37123781C44C6E7E37826
:1055C000002BF9D1A37873BB754D03E06B689C4247
:1055D00024D02435734B9D4208D96F496F484FF44E
:1055E0009B7209F065FB4FF49B71E0E7EED36D46CB
:1055F00088B06A466C4BC2E90534032342F8103F79
:105600006A4800234FF4C251FEF73CFEAD4667489E
:10561000674A012109F0D1FD00208CE7AB6813B186
:10562000F96820469847FB680133DBB2FB60C3E7AB
:10563000002D5AD15F4A5D48012109F0BEFDE6E721
:105640002B6AA07803EBC2010B79984247D14FF047
:10565000010BE07800F003003875207994F805C05C
:1056600040EA0C20788294F9020000285FFA8BF35C
:1056700028DA0BF110004FF0010C0CFA00F010EAE0
:10568000090F27D143F08000387407F11000C7E9F3
:105690000031BA6002F014FAD7E901123B68C8B9C8
:1056A0003A7CA27012F0800F18BF10330A7118BF35
:1056B000DBB24FF0010214BF9A4002FA0BF249EA42
:1056C000020979E7012000FA0BF010EA090F01D175
:1056D0001846D9E70BF1010BBBF1100FB9D101321C
:1056E0002B7F9A42ACD3344AA5E70022F8E7032E79
:1056F00024D1FFF7D1FE8346A0B1FBF71BFD034683
:1057000080B1102806D0B8602C4A2848022109F040
:1057100054FDBB68102BA8BF10231A465946A01C85
:105720000AF07DFB23786FF00200E118001B04EB08
:105730005303C84209D50136F6B23DE7002EF1D138
:10574000B8F1000F13D11E4A75E71A78203A5E2A85
:1057500006D911491148CB2209F0AAFACB2126E734
:1057600001F801AC13F8012901F8022DE1E7A4EBDF
:10577000080388F80230C3F3072388F80330FB6876
:1057800088F80430D7E7A04616E700BF7C2B00203E
:10579000740C0020670D0020460F0100E805010091
:1057A000680D0020B00D00207C0F0100E402010014
:1057B000621001009C0F0100DD0F0100FA0F0100D3
:1057C0004510010010B5094B00211A461C7884428F
:1057D00004D15C6814B102EB811010BD01310429C1
:1057E00003F14003F2D10020F7E700BF14170020B7
:1057F0002DE9FF4150F8283C10F82C6C103304467A
:105800000AD1036950F8202C98073DD5D2B9590721
:1058100015D5002344F8283C54F8283C10330BD00D
:1058200054E9077554F8148C0AF045FA002857D04B
:10583000324821460AF02FFA04B0BDE8F08143F067
:105840000403236103AB54F8241C3046FFF76CFCBF
:10585000034640B12A4A2B480096012109F0C0FCBA
:105860006FF01503D6E7039A54F8243C134444F828
:10587000243C54F8203C9B1A44F8203C54F81C3C2F
:10588000134444F81C3CC7E703AB54F8241C3046CF
:1058900002F090FA03460028DCD1039D54F8243C22
:1058A0002B4444F8243C54F8203C5B1B44F8203C37
:1058B00054F81C3C2B4444F81C3C002DA9D0304625
:1058C00002F036FBB5FBF0F303FB1055002DA0D121
:1058D00054F8203C002B9CD0304602F0C1FA9BE7E4
:1058E00044F8180CA4F1100006F0E8FA002DA3D03B
:1058F000424639463046A8479EE700BF7012002056
:1059000090100100FC0201004B1E012B73B50646EE
:105910000D4614D8FFF756FF044690B9012D0ED15D
:1059200001AB01220DF10301304602F043FA019B65
:10593000002BF5D10C4A0D48012109F03EFC02B0C4
:1059400070BD0AF0B8F904F12C0108B1012D05D1A0
:10595000084602B0BDE87040FFF74ABF044802B0F5
:10596000BDE870400AF097B9AD100100FC020100DB
:10597000701200202DE9F74F054601911646984612
:1059800009F0DBFC002871D1EFF311832022009392
:1059900082F31288BFF36F8FDFF8D890834600221E
:1059A0000023484606F0ECFAA0B9DFF8CCA04FEA95
:1059B0008B170AEB8B1BDBF8044014F1100F20D17E
:1059C0002E4A2F482B46012109F000FC484606F0DC
:1059D00075FA0DE00BF1010BBBF1040F09F1400961
:1059E000DDD1284A2648012109F0E7FB6FF00B04BE
:1059F000009B83F31188BFF36F8F204603B0BDE88F
:105A0000F08F0C99019BCBF814100D99CBF8100076
:105A1000CBF8181028466FF00F01CBE902360AF8D0
:105A20000750CBF83C80CBF8041002F081FA68B143
:105A3000284602F07DFAB6FBF0F101FB10662EB1AC
:105A4000DBF83C1041F00401CBF83C1018F0020FD9
:105A500007D007F12C010C4851440AF01CF900242E
:105A6000C6E7284602F0FCF90446C1E76FF00F04D0
:105A7000C3E700BF3017002014170020E210010018
:105A8000FC020100C71001007012002010B5EFF3F6
:105A90001184202383F31288BFF36F8FFFF792FEE8
:105AA00050B14368103307D16FF08B03436000F1AE
:105AB0002C0104480AF0EFF884F31188BFF36F8FCC
:105AC00010BD00BF70120020F8B50E4C0425202731
:105AD000EFF3118687F31288BFF36F8F636810337B
:105AE00007D16FF08B030848636004F12C010AF0C2
:105AF000D2F886F31188BFF36F8F013D04F14004A3
:105B0000E6D1F8BD141700207012002070B50A4CC1
:105B10000A4E00253146204606F030FC0122A4F151
:105B20001000114601350AF098F8042D04F14004E4
:105B3000F0D1002070BD00BF40170020F1570000D9
:105B40000169012381F84B300B6833B191F849307A
:105B50001BB1024808310AF09EB87047701200204D
:105B60000169012381F84A300B6833B191F848305C
:105B70001BB1024808310AF08EB87047701200203D
:105B800070B50569EFF31186202383F31288BFF304
:105B90006F8FD5F89000FDF7C7FF044686F3118894
:105BA000BFF36F8F30B104480022002305F11801C4
:105BB00006F0E2FC204670BD7012002070B5012393
:105BC00082F8483013680D4614463BB192F84A30CB
:105BD00023B10E4802F108010AF05DF8D4F89030C4
:105BE000DA885B899A4205D17DB904F1180140F643
:105BF000CD4204E004F11801002DF8D00022BDE8E8
:105C000070400248002306F0B7BC70BD701200203F
:105C10000D4A03460021A0F848101068C3F894000C
:105C200090889279A3F8980083F89A2083F89C10C2
:105C300083F89B10A3F89E1083F8A010402203F174
:105C40004C000AF0FAB800BF2003010080B500AF95
:105C500088B06A46064BC2E90530032342F8103F7C
:105C6000044800234FF4C451FEF70CFBBD4680BD31
:105C700018110100DC02010010B504690023C4F80A
:105C8000A8300C4BC4F8A400596804F1A80269B903
:105C9000C3E9002204F10800074906F06FFB04F194
:105CA0001800064906F042FC002010BD0A605A6048
:105CB000F0E700BF1818002065F300009D5D0000AC
:105CC00030B54FF40033426805690D4C85B042F29F
:105CD000A100CDE90103002385F89D30106AADF8DD
:105CE0000C1000790A2201A9FFF71EFA95F89D30E1
:105CF00023B9012009F04BFF013CF7D105B030BDBD
:105D0000A186010073B504698DF80710002384F89B
:105D100048302025EFF3118685F31288BFF36F8F8B
:105D20000122D4F890000DF10701FDF7FDFE86F386
:105D30001188BFF36F8F012819D009F0BCFF10B98B
:105D400094F8A130E3B9114BBFF35B8F012253E804
:105D5000001F002903D143E800200028F7D1BFF33A
:105D60005B8F04D10A4A0B48022109F026FA21224E
:105D7000002304F11801084806F0FEFB02B070BDD4
:105D80000021212007F066FAC4E700BF14180020A4
:105D900039110100DC02010070120020F0B5D0F8CA
:105DA0008C305B681B6A1F7D85B00546384609F05C
:105DB000C4FA064650BB95F886303BB3A86F01463F
:105DC000C38831F80A2F9B1A9BB2B3F5806F28BFA6
:105DD0004FF4806303AA09F0FCF80446B0B18306CF
:105DE000A5F1180308BF00F1FF3485F83060019376
:105DF000074B03990093224602233846FFF7BAFD6A
:105E0000A86F224600F10A0109F019F905B0F0BDAA
:105E1000BD5B00000346024A0248022109F0D6B9E0
:105E200058110100DC02010010B501460446064885
:105E300009F06DFA20B92046BDE81040FFF7EABF2F
:105E4000012300F8073C10BD1818002070B50E465D
:105E500081880446C9B21848154609F04AFA40B983
:105E6000A3881648164A022109F0B0F96FF0120013
:105E700070BD94F900206378002A16DB202B04D033
:105E8000222B0ED06FF08500F2E72B681A6840F8DD
:105E9000102C9A8820F80C2C9B7900F80A3C0020E2
:105EA000E6E7638800F8093CF9E7212BEAD11038CE
:105EB000072328603360F2E718180020DC02010095
:105EC0007E11010073B50D1E064614462ADDD4F876
:105ED0008C002A4604F14C01FDF726FE854205D9C7
:105EE000184A2B1A0121184809F070F9012384F887
:105EF000493023683BB194F84B3023B1134804F187
:105F0000080109F0C8FED4F88C20938891891269A1
:105F10005B1A9BB2D31A3F2B04D8012384F8A0301C
:105F200002B070BD94F89E30002BF9D0084B00935E
:105F300001940123402204F14C013046FFF71AFD81
:105F4000EEE700BFA5110100DC0201007012002085
:105F5000C55E0000F7B505460E4601462C4809F01F
:105F6000BCF9044628B9284603B0BDE8F040FFF765
:105F70006DBE0546711E55F8A4395F68052920D805
:105F8000DFE801F0261F03212C350321214A224896
:105F900009F013F914F8061C99B9012304F8063C1A
:105FA0003B6A2A46187BFFF78DFF14F85C2C42B938
:105FB0003B6A187D194B0093019502231146FFF7A8
:105FC000D9FC03B0F0BD164A1348032109F0F5F8D7
:105FD000284603B0BDE8F040FFF71ABE114A0E484C
:105FE000032109F0EAF8012304F8053CE9E70E4A29
:105FF0000948032109F0E1F814F8053C002BE0D032
:106000000A4A0548032109F0D8F80023ECE700BF4D
:1060100018180020C6110100DC020100BD5B000061
:10602000D8110100EC110100FD1101000C1201005A
:1060300037B5094D0949002400944FF0FF334FF460
:106040008062284606F00CFA0549284609F039FE18
:10605000204603B030BD00BF701200200034002085
:106060004612010008B5044808F00CFE034808F089
:1060700009FE002008BD00BF4F120100841201007C
:10608000014808F021B800BFB003010038B504464C
:1060900018B90F4B0F485B6898476168B1F5683FC6
:1060A00010D0B1F5680F0DD00B4DA9420AD011F4F4
:1060B0006861206807D00146084805F0BBFB002353
:1060C0002360656038BD142209F0B7FEF9E700BF10
:1060D000100B0020B21201002C5F5CA9201D0020D3
:1060E00008B520B34368B3F5683F10D101220368B7
:1060F000BFF35B8F53E8001F002903D143E8002062
:106100000028F7D1BFF35B8F0DD1002008BD094AED
:1061100093420AD000684FF0FF324FF0FF3305F092
:106120003BFC0028F1D00448F0E70448EEE76FF4A8
:10613000E040EBE72C5F5CA9E98FFFFFEA8FFFFFF0
:1061400008B5D8B14368B3F5683F10D100220368A1
:10615000BFF35B8F53E8001F012903D143E8002000
:106160000028F7D1BFF35B8F0BD1002008BD074A91
:10617000934208D0006805F0C5FCF6E76FF4E040F4
:10618000F4E70348F2E70348F0E700BF2C5F5CA99F
:10619000E98FFFFFEA8FFFFF10B5044618B91D4BCA
:1061A0001D485B6898476368B3F5683F2FD0B3F527
:1061B000680F2CD0194A934219D1236803BB1848A1
:1061C0004FF0FF324FF0FF33214605F0C1FA08B916
:1061D00023681BB90F4B13485B689847206814224B
:1061E000002109F02AFE4FF46863636008E0B3F50C
:1061F000683F0DD83A2B03D040F6BA629342DED105
:10620000206809F00CFD636843F03A03636010BD39
:10621000054AF3E7100B0020B21201002C5F5CA9C5
:10622000201D0020D81201003A00003A08B50649A6
:1062300006484023142209F0DBFCBDE8084004496D
:10624000044807F0B3BF00BF20180020201D002025
:10625000B8030100CC03010008B50348034A00213C
:10626000121A09F073F908BDB00D00209C2B002014
:106270000748084A084908B5121A09F069F9074899
:10628000074A0849BDE80840121A09F061B900BF81
:10629000C0040020B00D002068210100B8040020D7
:1062A000C0040020602101002DE9F047064600AF40
:1062B0000C46002936D0E9468AB0D1E90012A3681D
:1062C0006D462148A8464FF0050AC5E90501C5E914
:1062D000072348F810AF1D48424600234FF42151D0
:1062E000FDF7D0FFCD46D4E903126369AD461848E7
:1062F000C5F810A0C5E90501C5E907231348002327
:1063000042464FF42151FDF7BDFFCD46E369114AE6
:106310000E48012108F05AFFA3690F4A0B480121DA
:1063200008F054FF012E07D1EFF305830B4A07480D
:10633000103B314608F04AFF2146304605F01CF874
:10634000BD46BDE8F08700BF05130100C40201008F
:10635000341301006313010072130100A013010044
:1063600030BFFFF7FDBF00BF2DE9F0410B4EDFF856
:10637000308006EB0807CC1B05463246094920460B
:1063800009F04DFDA01942460021083C09F055FDD9
:106390002C6707F10800BDE8F08100BF0000000095
:1063A0000400000014030100054B5A699B689A42DF
:1063B0001FBF044A536843F080535360704700BFC7
:1063C000AC28002000ED00E070B5294C06460D46D3
:1063D0002848294909F0C9F8A36AD9043CD52548B9
:1063E000264909F0C2F81720A36A1A0504D52148E6
:1063F000234909F0BAF818201D4CA36A9B0512D551
:106400001C48204909F0B1F8A36BA26A100409D511
:106410001D4A1848012108F0D9FE1EB1A36A23F4D1
:106420000043A3621920124CA36A590504D51148F0
:10643000164909F09AF81A20A36ADA050ED50D4814
:10644000134909F092F81B20094A936A43F47F43E9
:10645000936200232B7070BD1620C5E7A36A9B04CE
:10646000F2D504480B4909F080F81C20ECE700BF86
:1064700000ED00E0C4020100B3130100C9130100E4
:10648000DA130100ED130100061401001B140100D2
:10649000361401004E14010010B5204C204921484B
:1064A00009F063F8A36A990136D51E481E4909F020
:1064B0005CF81E20A36ADA0104D51A481B4909F0CA
:1064C00054F81F20154CA36A1B0304D5154818491E
:1064D00009F04BF82120A36A590304D51148154946
:1064E00009F043F822200D4CA36A9A0304D50D4805
:1064F000114909F03AF82320A36ADB0304D50948BF
:106500000E4909F032F82420044A936A6FEA0343E3
:106510006FEA1343936210BD1D20CBE700ED00E04E
:106520007D140100C402010095140100A8140100AB
:10653000C2140100E0140100051501001F1501003F
:106540002DE9F8433D4D804689463D483D49174673
:1065500009F00BF8AB6ADA0627D53B49384809F051
:1065600004F81124AB6A1B0704D53849344808F0F5
:10657000FCFF1224314DAB6A9E0718D534493048D0
:1065800008F0F3FF6E6BAB6A1C0646D5314A2C4807
:106590003346012108F01AFEB9F1000F03D0AB6AAF
:1065A00023F08003AB62132403E01024DAE76FF0DA
:1065B0001506224DAB6AD80704D52749204808F0B4
:1065C000D4FF1424AB6A990604D524491C4808F06A
:1065D000CCFF1524194DAB6ADA0602D4AB6A9B07CF
:1065E0000AD56B68180507D54146304600F0B2FA67
:1065F000B0B180F309880224104B9A6A920642BF18
:106600005A6A22F400525A629A6A42F0FF029A626F
:1066100000233B702046BDE8F8836FF01506C2E703
:10662000AB6AD906E8D50E490E4840F2271208F0A9
:106630003FFB0B4840F2271108F031FB00ED00E072
:10664000C40201004A15010060150100DA130100BF
:1066500093150100AB150100C11501004E14010096
:10666000E0150100E8050100F0B5734B8BB004465E
:10667000586800AFC0F30803002686F31188BFF303
:106680006F8F02F07F45B5F17F4F07D102F00C0507
:10669000082D0ED169496A4808F067FF69496A48C0
:1066A00040F2144208F004FB40F21441654808F03F
:1066B000F6FA15074CBF0C460126002CEED000223E
:1066C000FA71DA1E092A00F29680DFE802F0058CE2
:1066D0008F779494949494925C495948564D08F05D
:1066E00044FF0023FB71EB6A9A0705D558495448CB
:1066F00008F03BFF002329E0EB6A002B01DA554943
:10670000F5E7EB6A5B0065D553494D4808F02DFF6E
:106710006B69A26943F480736B61BFF34F8FBFF362
:106720006F8F6B6932F8022C23F480736B61BFF3B7
:106730004F8FBFF36F8F4DF602739A4227D12368B4
:10674000464A3F48012108F041FD2368FA79DAB949
:1067500007F1080504F1200C206861682A4603C28D
:10676000083464451546F7D17A6A002E5FD0C2F32B
:10677000080121B96FEA52226FEA42227A6207F1D8
:1067800008011846FFF790FD2C37BD46F0BDAB6AF7
:10679000DBB233B1FA1D01212046FFF7D1FE0346DB
:1067A000D4E7AB6A13F47F4F04D0F91D0120FFF743
:1067B0000BFEF4E7AB6AB3F5803F02D3FFF76CFE44
:1067C000EDE72049204840F2ED2208F071FA40F24E
:1067D000ED216BE71B491C484FF43C7208F068FA46
:1067E0004FF43C7162E7FA1D0021D5E7F91D002046
:1067F000DDE71B497BE71B4A1B4910F4F87F6D4618
:106800008AB018BF11466A46103BD36117484FF44F
:1068100000731384164BC2E9050142F8103F084883
:1068200000234FF41151FDF72DFDAD4662E722F430
:10683000FF7222F00102A1E700ED00E04016010026
:10684000C4020100E0150100E80501006B1601001B
:1068500082160100A3160100B1160100D016010036
:10686000EC16010027160100121601001017010096
:1068700004000001044B5A6942F010025A615A693F
:1068800022F008025A61704700ED00E0EFF3088043
:10689000EFF3098101B57246FFF7E6FE01BD00BFC7
:1068A000002080F31488BFF36F8F0F4880F30888AF
:1068B00003F0DAF900200D490860BFF34F8F00F0B4
:1068C0002BF8202080F3118809484FF40461401808
:1068D00080F30988EFF314800221084380F31488C1
:1068E000BFF36F8F00F006F9404A002094ED00E0FE
:1068F000803C00200749D1F890200023C2F30722F2
:106900001846934200DB7047C1F89830C1F8A000E8
:106910000133F6E700ED00E008B572B6002383F31B
:106920001388FFF7E7FF144B4FF0FF32C3F88020C6
:10693000C3F88420C3F88820C3F88C20C3F89020C3
:10694000C3F89420C3F89820C3F89C20C3F8802192
:10695000C3F88421C3F88821C3F88C21C3F890219F
:10696000C3F89421C3F89821C3F89C2162B6BFF301
:106970004F8FBFF36F8F08BD00E100E0084B9B68AD
:1069800083420BD1EFF3058343B1064B5A6842F0C3
:1069900080525A605A6A22F400425A6206F0F6BCEB
:1069A000AC28002000ED00E014498A684FF0300068
:1069B0001044EFF3098C80E8F01F202080F3128848
:1069C000BFF36F8F0E4F4FF000664A698A603E60DA
:1069D000106F0C4C2060506F0023536780F31188B8
:1069E00004B5104600F01AF9BDE8044002F1300089
:1069F00090E8F01F8CF3098870470000AC28002055
:106A000004ED00E0401D00201EF0040F0CBFEFF36A
:106A10000880EFF30980816911F8021C0229FFD078
:106A200001B5724608F096FD01BD00BF40B20028D6
:106A300007DB044A4109012300F01F00834042F8AC
:106A40002130704700E100E040B200280CDB430930
:106A5000064900F01F0020330122824041F8232024
:106A6000BFF34F8FBFF36F8F704700BF00E100E0AF
:106A7000054B420900F01F0053F82220012303FABE
:106A800000F01040704700BF00E100E0013107292D
:106A900008B508D90D490E486B2208F009F90B48D2
:106AA0006B2108F0FCF840B20028ACBF00F1604058
:106AB000084B4FEA4111B8BF00F00F00C9B2AABF9E
:106AC00000F56140195480F8001308BD2317010038
:106AD000E805010014ED00E0044B054A23F07F03B4
